{
  "_format": "hh-sol-artifact-1",
  "contractName": "HeroNFT",
  "sourceName": "contracts/HeroNFT.sol",
  "abi": [
    {
      "inputs": [],
      "stateMutability": "nonpayable",
      "type": "constructor"
    },
    {
      "inputs": [
        {
          "internalType": "address",
          "name": "sender",
          "type": "address"
        },
        {
          "internalType": "uint256",
          "name": "tokenId",
          "type": "uint256"
        },
        {
          "internalType": "address",
          "name": "owner",
          "type": "address"
        }
      ],
      "name": "ERC721IncorrectOwner",
      "type": "error"
    },
    {
      "inputs": [
        {
          "internalType": "address",
          "name": "operator",
          "type": "address"
        },
        {
          "internalType": "uint256",
          "name": "tokenId",
          "type": "uint256"
        }
      ],
      "name": "ERC721InsufficientApproval",
      "type": "error"
    },
    {
      "inputs": [
        {
          "internalType": "address",
          "name": "approver",
          "type": "address"
        }
      ],
      "name": "ERC721InvalidApprover",
      "type": "error"
    },
    {
      "inputs": [
        {
          "internalType": "address",
          "name": "operator",
          "type": "address"
        }
      ],
      "name": "ERC721InvalidOperator",
      "type": "error"
    },
    {
      "inputs": [
        {
          "internalType": "address",
          "name": "owner",
          "type": "address"
        }
      ],
      "name": "ERC721InvalidOwner",
      "type": "error"
    },
    {
      "inputs": [
        {
          "internalType": "address",
          "name": "receiver",
          "type": "address"
        }
      ],
      "name": "ERC721InvalidReceiver",
      "type": "error"
    },
    {
      "inputs": [
        {
          "internalType": "address",
          "name": "sender",
          "type": "address"
        }
      ],
      "name": "ERC721InvalidSender",
      "type": "error"
    },
    {
      "inputs": [
        {
          "internalType": "uint256",
          "name": "tokenId",
          "type": "uint256"
        }
      ],
      "name": "ERC721NonexistentToken",
      "type": "error"
    },
    {
      "inputs": [
        {
          "internalType": "address",
          "name": "owner",
          "type": "address"
        }
      ],
      "name": "OwnableInvalidOwner",
      "type": "error"
    },
    {
      "inputs": [
        {
          "internalType": "address",
          "name": "account",
          "type": "address"
        }
      ],
      "name": "OwnableUnauthorizedAccount",
      "type": "error"
    },
    {
      "anonymous": false,
      "inputs": [
        {
          "indexed": true,
          "internalType": "address",
          "name": "owner",
          "type": "address"
        },
        {
          "indexed": true,
          "internalType": "address",
          "name": "approved",
          "type": "address"
        },
        {
          "indexed": true,
          "internalType": "uint256",
          "name": "tokenId",
          "type": "uint256"
        }
      ],
      "name": "Approval",
      "type": "event"
    },
    {
      "anonymous": false,
      "inputs": [
        {
          "indexed": true,
          "internalType": "address",
          "name": "owner",
          "type": "address"
        },
        {
          "indexed": true,
          "internalType": "address",
          "name": "operator",
          "type": "address"
        },
        {
          "indexed": false,
          "internalType": "bool",
          "name": "approved",
          "type": "bool"
        }
      ],
      "name": "ApprovalForAll",
      "type": "event"
    },
    {
      "anonymous": false,
      "inputs": [
        {
          "indexed": true,
          "internalType": "address",
          "name": "to",
          "type": "address"
        },
        {
          "indexed": true,
          "internalType": "uint256",
          "name": "tokenId",
          "type": "uint256"
        },
        {
          "indexed": false,
          "internalType": "enum HeroNFT.Rarity",
          "name": "rarity",
          "type": "uint8"
        }
      ],
      "name": "HeroMinted",
      "type": "event"
    },
    {
      "anonymous": false,
      "inputs": [
        {
          "indexed": true,
          "internalType": "address",
          "name": "seller",
          "type": "address"
        },
        {
          "indexed": true,
          "internalType": "uint256",
          "name": "tokenId",
          "type": "uint256"
        }
      ],
      "name": "NFTDelisted",
      "type": "event"
    },
    {
      "anonymous": false,
      "inputs": [
        {
          "indexed": true,
          "internalType": "address",
          "name": "seller",
          "type": "address"
        },
        {
          "indexed": true,
          "internalType": "uint256",
          "name": "tokenId",
          "type": "uint256"
        },
        {
          "indexed": false,
          "internalType": "uint256",
          "name": "price",
          "type": "uint256"
        }
      ],
      "name": "NFTListed",
      "type": "event"
    },
    {
      "anonymous": false,
      "inputs": [
        {
          "indexed": true,
          "internalType": "address",
          "name": "buyer",
          "type": "address"
        },
        {
          "indexed": true,
          "internalType": "uint256",
          "name": "tokenId",
          "type": "uint256"
        },
        {
          "indexed": false,
          "internalType": "uint256",
          "name": "price",
          "type": "uint256"
        }
      ],
      "name": "NFTOffered",
      "type": "event"
    },
    {
      "anonymous": false,
      "inputs": [
        {
          "indexed": true,
          "internalType": "address",
          "name": "seller",
          "type": "address"
        },
        {
          "indexed": true,
          "internalType": "address",
          "name": "buyer",
          "type": "address"
        },
        {
          "indexed": true,
          "internalType": "uint256",
          "name": "tokenId",
          "type": "uint256"
        },
        {
          "indexed": false,
          "internalType": "uint256",
          "name": "price",
          "type": "uint256"
        }
      ],
      "name": "OfferAccepted",
      "type": "event"
    },
    {
      "anonymous": false,
      "inputs": [
        {
          "indexed": true,
          "internalType": "address",
          "name": "buyer",
          "type": "address"
        },
        {
          "indexed": true,
          "internalType": "uint256",
          "name": "tokenId",
          "type": "uint256"
        },
        {
          "indexed": false,
          "internalType": "uint256",
          "name": "amount",
          "type": "uint256"
        }
      ],
      "name": "OfferCancelled",
      "type": "event"
    },
    {
      "anonymous": false,
      "inputs": [
        {
          "indexed": true,
          "internalType": "address",
          "name": "previousOwner",
          "type": "address"
        },
        {
          "indexed": true,
          "internalType": "address",
          "name": "newOwner",
          "type": "address"
        }
      ],
      "name": "OwnershipTransferred",
      "type": "event"
    },
    {
      "anonymous": false,
      "inputs": [
        {
          "indexed": true,
          "internalType": "address",
          "name": "from",
          "type": "address"
        },
        {
          "indexed": true,
          "internalType": "address",
          "name": "to",
          "type": "address"
        },
        {
          "indexed": true,
          "internalType": "uint256",
          "name": "tokenId",
          "type": "uint256"
        }
      ],
      "name": "Transfer",
      "type": "event"
    },
    {
      "inputs": [],
      "name": "COMMON_LIMIT",
      "outputs": [
        {
          "internalType": "uint256",
          "name": "",
          "type": "uint256"
        }
      ],
      "stateMutability": "view",
      "type": "function"
    },
    {
      "inputs": [],
      "name": "LEGENDARY_LIMIT",
      "outputs": [
        {
          "internalType": "uint256",
          "name": "",
          "type": "uint256"
        }
      ],
      "stateMutability": "view",
      "type": "function"
    },
    {
      "inputs": [],
      "name": "MAX_MINT_PER_WALLET",
      "outputs": [
        {
          "internalType": "uint256",
          "name": "",
          "type": "uint256"
        }
      ],
      "stateMutability": "view",
      "type": "function"
    },
    {
      "inputs": [],
      "name": "MAX_SUPPLY",
      "outputs": [
        {
          "internalType": "uint256",
          "name": "",
          "type": "uint256"
        }
      ],
      "stateMutability": "view",
      "type": "function"
    },
    {
      "inputs": [],
      "name": "MINT_PRICE",
      "outputs": [
        {
          "internalType": "uint256",
          "name": "",
          "type": "uint256"
        }
      ],
      "stateMutability": "view",
      "type": "function"
    },
    {
      "inputs": [],
      "name": "MYTHICAL_LIMIT",
      "outputs": [
        {
          "internalType": "uint256",
          "name": "",
          "type": "uint256"
        }
      ],
      "stateMutability": "view",
      "type": "function"
    },
    {
      "inputs": [],
      "name": "RARE_LIMIT",
      "outputs": [
        {
          "internalType": "uint256",
          "name": "",
          "type": "uint256"
        }
      ],
      "stateMutability": "view",
      "type": "function"
    },
    {
      "inputs": [
        {
          "internalType": "uint256",
          "name": "tokenId",
          "type": "uint256"
        },
        {
          "internalType": "address",
          "name": "buyer",
          "type": "address"
        }
      ],
      "name": "acceptOffer",
      "outputs": [],
      "stateMutability": "nonpayable",
      "type": "function"
    },
    {
      "inputs": [
        {
          "internalType": "address",
          "name": "to",
          "type": "address"
        },
        {
          "internalType": "uint256",
          "name": "tokenId",
          "type": "uint256"
        }
      ],
      "name": "approve",
      "outputs": [],
      "stateMutability": "nonpayable",
      "type": "function"
    },
    {
      "inputs": [
        {
          "internalType": "address",
          "name": "owner",
          "type": "address"
        }
      ],
      "name": "balanceOf",
      "outputs": [
        {
          "internalType": "uint256",
          "name": "",
          "type": "uint256"
        }
      ],
      "stateMutability": "view",
      "type": "function"
    },
    {
      "inputs": [
        {
          "internalType": "uint256",
          "name": "tokenId",
          "type": "uint256"
        }
      ],
      "name": "cancelOffer",
      "outputs": [],
      "stateMutability": "nonpayable",
      "type": "function"
    },
    {
      "inputs": [],
      "name": "commonCount",
      "outputs": [
        {
          "internalType": "uint256",
          "name": "",
          "type": "uint256"
        }
      ],
      "stateMutability": "view",
      "type": "function"
    },
    {
      "inputs": [
        {
          "internalType": "uint256",
          "name": "tokenId",
          "type": "uint256"
        }
      ],
      "name": "delistNFT",
      "outputs": [],
      "stateMutability": "nonpayable",
      "type": "function"
    },
    {
      "inputs": [
        {
          "internalType": "uint256",
          "name": "tokenId",
          "type": "uint256"
        }
      ],
      "name": "getApproved",
      "outputs": [
        {
          "internalType": "address",
          "name": "",
          "type": "address"
        }
      ],
      "stateMutability": "view",
      "type": "function"
    },
    {
      "inputs": [
        {
          "internalType": "uint256",
          "name": "",
          "type": "uint256"
        }
      ],
      "name": "heroes",
      "outputs": [
        {
          "internalType": "uint256",
          "name": "strength",
          "type": "uint256"
        },
        {
          "internalType": "uint256",
          "name": "agility",
          "type": "uint256"
        },
        {
          "internalType": "uint256",
          "name": "intelligence",
          "type": "uint256"
        },
        {
          "internalType": "enum HeroNFT.Rarity",
          "name": "rarity",
          "type": "uint8"
        }
      ],
      "stateMutability": "view",
      "type": "function"
    },
    {
      "inputs": [
        {
          "internalType": "address",
          "name": "owner",
          "type": "address"
        },
        {
          "internalType": "address",
          "name": "operator",
          "type": "address"
        }
      ],
      "name": "isApprovedForAll",
      "outputs": [
        {
          "internalType": "bool",
          "name": "",
          "type": "bool"
        }
      ],
      "stateMutability": "view",
      "type": "function"
    },
    {
      "inputs": [],
      "name": "legendaryCount",
      "outputs": [
        {
          "internalType": "uint256",
          "name": "",
          "type": "uint256"
        }
      ],
      "stateMutability": "view",
      "type": "function"
    },
    {
      "inputs": [
        {
          "internalType": "uint256",
          "name": "tokenId",
          "type": "uint256"
        },
        {
          "internalType": "uint256",
          "name": "price",
          "type": "uint256"
        }
      ],
      "name": "listNFT",
      "outputs": [],
      "stateMutability": "nonpayable",
      "type": "function"
    },
    {
      "inputs": [
        {
          "internalType": "uint256",
          "name": "",
          "type": "uint256"
        }
      ],
      "name": "listedNFTs",
      "outputs": [
        {
          "internalType": "uint256",
          "name": "",
          "type": "uint256"
        }
      ],
      "stateMutability": "view",
      "type": "function"
    },
    {
      "inputs": [],
      "name": "mintHero",
      "outputs": [
        {
          "internalType": "uint256",
          "name": "",
          "type": "uint256"
        }
      ],
      "stateMutability": "payable",
      "type": "function"
    },
    {
      "inputs": [
        {
          "internalType": "address",
          "name": "",
          "type": "address"
        }
      ],
      "name": "mintedPerWallet",
      "outputs": [
        {
          "internalType": "uint256",
          "name": "",
          "type": "uint256"
        }
      ],
      "stateMutability": "view",
      "type": "function"
    },
    {
      "inputs": [],
      "name": "mythicalCount",
      "outputs": [
        {
          "internalType": "uint256",
          "name": "",
          "type": "uint256"
        }
      ],
      "stateMutability": "view",
      "type": "function"
    },
    {
      "inputs": [],
      "name": "name",
      "outputs": [
        {
          "internalType": "string",
          "name": "",
          "type": "string"
        }
      ],
      "stateMutability": "view",
      "type": "function"
    },
    {
      "inputs": [
        {
          "internalType": "uint256",
          "name": "tokenId",
          "type": "uint256"
        }
      ],
      "name": "offerNFT",
      "outputs": [],
      "stateMutability": "payable",
      "type": "function"
    },
    {
      "inputs": [
        {
          "internalType": "uint256",
          "name": "",
          "type": "uint256"
        },
        {
          "internalType": "address",
          "name": "",
          "type": "address"
        }
      ],
      "name": "offers",
      "outputs": [
        {
          "internalType": "uint256",
          "name": "",
          "type": "uint256"
        }
      ],
      "stateMutability": "view",
      "type": "function"
    },
    {
      "inputs": [],
      "name": "owner",
      "outputs": [
        {
          "internalType": "address",
          "name": "",
          "type": "address"
        }
      ],
      "stateMutability": "view",
      "type": "function"
    },
    {
      "inputs": [
        {
          "internalType": "uint256",
          "name": "tokenId",
          "type": "uint256"
        }
      ],
      "name": "ownerOf",
      "outputs": [
        {
          "internalType": "address",
          "name": "",
          "type": "address"
        }
      ],
      "stateMutability": "view",
      "type": "function"
    },
    {
      "inputs": [],
      "name": "rareCount",
      "outputs": [
        {
          "internalType": "uint256",
          "name": "",
          "type": "uint256"
        }
      ],
      "stateMutability": "view",
      "type": "function"
    },
    {
      "inputs": [],
      "name": "renounceOwnership",
      "outputs": [],
      "stateMutability": "nonpayable",
      "type": "function"
    },
    {
      "inputs": [
        {
          "internalType": "address",
          "name": "from",
          "type": "address"
        },
        {
          "internalType": "address",
          "name": "to",
          "type": "address"
        },
        {
          "internalType": "uint256",
          "name": "tokenId",
          "type": "uint256"
        }
      ],
      "name": "safeTransferFrom",
      "outputs": [],
      "stateMutability": "nonpayable",
      "type": "function"
    },
    {
      "inputs": [
        {
          "internalType": "address",
          "name": "from",
          "type": "address"
        },
        {
          "internalType": "address",
          "name": "to",
          "type": "address"
        },
        {
          "internalType": "uint256",
          "name": "tokenId",
          "type": "uint256"
        },
        {
          "internalType": "bytes",
          "name": "data",
          "type": "bytes"
        }
      ],
      "name": "safeTransferFrom",
      "outputs": [],
      "stateMutability": "nonpayable",
      "type": "function"
    },
    {
      "inputs": [
        {
          "internalType": "address",
          "name": "operator",
          "type": "address"
        },
        {
          "internalType": "bool",
          "name": "approved",
          "type": "bool"
        }
      ],
      "name": "setApprovalForAll",
      "outputs": [],
      "stateMutability": "nonpayable",
      "type": "function"
    },
    {
      "inputs": [
        {
          "internalType": "bytes4",
          "name": "interfaceId",
          "type": "bytes4"
        }
      ],
      "name": "supportsInterface",
      "outputs": [
        {
          "internalType": "bool",
          "name": "",
          "type": "bool"
        }
      ],
      "stateMutability": "view",
      "type": "function"
    },
    {
      "inputs": [],
      "name": "symbol",
      "outputs": [
        {
          "internalType": "string",
          "name": "",
          "type": "string"
        }
      ],
      "stateMutability": "view",
      "type": "function"
    },
    {
      "inputs": [
        {
          "internalType": "uint256",
          "name": "tokenId",
          "type": "uint256"
        }
      ],
      "name": "tokenURI",
      "outputs": [
        {
          "internalType": "string",
          "name": "",
          "type": "string"
        }
      ],
      "stateMutability": "view",
      "type": "function"
    },
    {
      "inputs": [
        {
          "internalType": "address",
          "name": "from",
          "type": "address"
        },
        {
          "internalType": "address",
          "name": "to",
          "type": "address"
        },
        {
          "internalType": "uint256",
          "name": "tokenId",
          "type": "uint256"
        }
      ],
      "name": "transferFrom",
      "outputs": [],
      "stateMutability": "nonpayable",
      "type": "function"
    },
    {
      "inputs": [
        {
          "internalType": "address",
          "name": "newOwner",
          "type": "address"
        }
      ],
      "name": "transferOwnership",
      "outputs": [],
      "stateMutability": "nonpayable",
      "type": "function"
    },
    {
      "inputs": [],
      "name": "withdraw",
      "outputs": [],
      "stateMutability": "nonpayable",
      "type": "function"
    }
  ],
  "bytecode": "0x608060405234801561001057600080fd5b50336040518060400160405280600781526020016612195c9bd3919560ca1b815250604051806040016040528060048152602001634845524f60e01b815250816000908161005e91906101a1565b50600161006b82826101a1565b5050506001600160a01b03811661009c57604051631e4fbdf760e01b81526000600482015260240160405180910390fd5b6100a5816100b0565b50600060075561025f565b600680546001600160a01b038381166001600160a01b0319831681179093556040519116919082907f8be0079c531659141344cd1fd0a4f28419497f9722a3daafe3b4186f6b6457e090600090a35050565b634e487b7160e01b600052604160045260246000fd5b600181811c9082168061012c57607f821691505b60208210810361014c57634e487b7160e01b600052602260045260246000fd5b50919050565b601f82111561019c57806000526020600020601f840160051c810160208510156101795750805b601f840160051c820191505b818110156101995760008155600101610185565b50505b505050565b81516001600160401b038111156101ba576101ba610102565b6101ce816101c88454610118565b84610152565b6020601f82116001811461020257600083156101ea5750848201515b600019600385901b1c1916600184901b178455610199565b600084815260208120601f198516915b828110156102325787850151825560209485019460019092019101610212565b50848210156102505786840151600019600387901b60f8161c191681555b50505050600190811b01905550565b6122568061026e6000396000f3fe6080604052600436106102255760003560e01c806394383f1411610123578063c002d23d116100ab578063e92003371161006f578063e920033714610627578063e985e9c51461062f578063ebdfbce51461064f578063ef706adf14610687578063f2fde38b146106a757600080fd5b8063c002d23d146105a0578063c87b56dd146105bb578063cb917b9c146105db578063ce0348c6146105fb578063e04af1e21461061157600080fd5b8063a22cb465116100f2578063a22cb465146104f5578063a8d4a03b14610515578063b19960e61461031f578063b88d4fde1461056a578063b8e92ba31461058a57600080fd5b806394383f141461047e57806395d89b411461049e5780639ed5bd02146104b3578063a01dc41f146104c857600080fd5b80633ccfd60b116101b157806370a082311161017557806370a08231146103f5578063715018a614610415578063847de5031461042a5780638da5cb5b14610440578063918d407d1461045e57600080fd5b80633ccfd60b1461037757806342842e0e1461038c57806350d6f712146103ac578063531db50d146103c25780636352211e146103d557600080fd5b80631ac46acd116101f85780631ac46acd146102db57806323b872dd146102ff5780632db8ab771461031f57806332cb6b0c146103345780633a602b4d1461034a57600080fd5b806301ffc9a71461022a57806306fdde031461025f578063081812fc14610281578063095ea7b3146102b9575b600080fd5b34801561023657600080fd5b5061024a610245366004611d41565b6106c7565b60405190151581526020015b60405180910390f35b34801561026b57600080fd5b50610274610719565b6040516102569190611dae565b34801561028d57600080fd5b506102a161029c366004611dc1565b6107ab565b6040516001600160a01b039091168152602001610256565b3480156102c557600080fd5b506102d96102d4366004611df6565b6107d4565b005b3480156102e757600080fd5b506102f1600b5481565b604051908152602001610256565b34801561030b57600080fd5b506102d961031a366004611e20565b6107e3565b34801561032b57600080fd5b506102f1600a81565b34801561034057600080fd5b506102f16103e881565b34801561035657600080fd5b506102f1610365366004611e5d565b600c6020526000908152604090205481565b34801561038357600080fd5b506102d9610873565b34801561039857600080fd5b506102d96103a7366004611e20565b6108c6565b3480156103b857600080fd5b506102f160085481565b6102d96103d0366004611dc1565b6108e6565b3480156103e157600080fd5b506102a16103f0366004611dc1565b610b22565b34801561040157600080fd5b506102f1610410366004611e5d565b610b2d565b34801561042157600080fd5b506102d9610b75565b34801561043657600080fd5b506102f161025881565b34801561044c57600080fd5b506006546001600160a01b03166102a1565b34801561046a57600080fd5b506102d9610479366004611e78565b610b89565b34801561048a57600080fd5b506102d9610499366004611ea4565b610d10565b3480156104aa57600080fd5b50610274610e38565b3480156104bf57600080fd5b506102f1605a81565b3480156104d457600080fd5b506102f16104e3366004611dc1565b600d6020526000908152604090205481565b34801561050157600080fd5b506102d9610510366004611ec6565b610e47565b34801561052157600080fd5b5061055a610530366004611dc1565b600f6020526000908152604090208054600182015460028301546003909301549192909160ff1684565b6040516102569493929190611f3a565b34801561057657600080fd5b506102d9610585366004611f7b565b610e52565b34801561059657600080fd5b506102f161012c81565b3480156105ac57600080fd5b506102f166038d7ea4c6800081565b3480156105c757600080fd5b506102746105d6366004611dc1565b610e6a565b3480156105e757600080fd5b506102d96105f6366004611dc1565b610edf565b34801561060757600080fd5b506102f1600a5481565b34801561061d57600080fd5b506102f160095481565b6102f1610f85565b34801561063b57600080fd5b5061024a61064a36600461205f565b6112dd565b34801561065b57600080fd5b506102f161066a366004611e78565b600e60209081526000928352604080842090915290825290205481565b34801561069357600080fd5b506102d96106a2366004611dc1565b61130b565b3480156106b357600080fd5b506102d96106c2366004611e5d565b6113e2565b60006001600160e01b031982166380ac58cd60e01b14806106f857506001600160e01b03198216635b5e139f60e01b145b8061071357506301ffc9a760e01b6001600160e01b03198316145b92915050565b60606000805461072890612089565b80601f016020809104026020016040519081016040528092919081815260200182805461075490612089565b80156107a15780601f10610776576101008083540402835291602001916107a1565b820191906000526020600020905b81548152906001019060200180831161078457829003601f168201915b5050505050905090565b60006107b682611420565b506000828152600460205260409020546001600160a01b0316610713565b6107df828233611459565b5050565b6001600160a01b03821661081257604051633250574960e11b8152600060048201526024015b60405180910390fd5b600061081f838333611466565b9050836001600160a01b0316816001600160a01b03161461086d576040516364283d7b60e01b81526001600160a01b0380861660048301526024820184905282166044820152606401610809565b50505050565b61087b61155f565b4761088e6006546001600160a01b031690565b6001600160a01b03166108fc829081150290604051600060405180830381858888f193505050501580156107df573d6000803e3d6000fd5b6108e183838360405180602001604052806000815250610e52565b505050565b336108f082610b22565b6001600160a01b0316036109465760405162461bcd60e51b815260206004820181905260248201527f43616e6e6f74206f6666657220746f2062757920796f7572206f776e204e46546044820152606401610809565b600034116109a15760405162461bcd60e51b815260206004820152602260248201527f4f66666572207072696365206d7573742062652067726561746572207468616e604482015261020360f41b6064820152608401610809565b60006109ac82610b22565b6001600160a01b0316036109f75760405162461bcd60e51b815260206004820152601260248201527113919508191bd95cc81b9bdd08195e1a5cdd60721b6044820152606401610809565b6000818152600d6020526040902054610a225760405162461bcd60e51b8152600401610809906120c3565b6000818152600e6020908152604080832033845290915290205415610ac5576000818152600e60209081526040808320338085529252808320805490849055905190926108fc841502918491818181858888f19350505050158015610a8b573d6000803e3d6000fd5b50604051818152829033907fa916c06d382a32a2d52751a0f59721c029227671188c07a99233bf72bd3c679b9060200160405180910390a3505b6000818152600e60209081526040808320338085529252918290203490819055915183927fecd59dcba40938787297ab613d7215fe2a5e1648513041690785961d7bf2ce0891610b1791815260200190565b60405180910390a350565b600061071382611420565b60006001600160a01b038216610b59576040516322718ad960e21b815260006004820152602401610809565b506001600160a01b031660009081526003602052604090205490565b610b7d61155f565b610b87600061158c565b565b33610b9383610b22565b6001600160a01b031614610bb95760405162461bcd60e51b8152600401610809906120eb565b6000828152600e602090815260408083206001600160a01b038516845290915290205480610c295760405162461bcd60e51b815260206004820152601860248201527f4e6f206f666665722066726f6d207468697320627579657200000000000000006044820152606401610809565b6000838152600d6020526040902054610c545760405162461bcd60e51b8152600401610809906120c3565b6000838152600e602090815260408083206001600160a01b03861684528252808320839055858352600d909152812055610c8f3383856108c6565b604051339082156108fc029083906000818181858888f19350505050158015610cbc573d6000803e3d6000fd5b5082826001600160a01b0316336001600160a01b03167fa6da490df6e8f0e592e795b4d96c5810d8ddfda51c21577adbdd8e1a0fa47a6784604051610d0391815260200190565b60405180910390a4505050565b33610d1a83610b22565b6001600160a01b031614610d405760405162461bcd60e51b8152600401610809906120eb565b60008111610d905760405162461bcd60e51b815260206004820152601c60248201527f5072696365206d7573742062652067726561746572207468616e2030000000006044820152606401610809565b6000828152600d602052604090205415610de15760405162461bcd60e51b815260206004820152601260248201527113919508185b1c9958591e481b1a5cdd195960721b6044820152606401610809565b6000828152600d60205260409020819055610dfc30836107d4565b604051818152829033907fbbf44e68296791df5535457da734bf1017c4b233a740af6d7a89b9f1af4ecb42906020015b60405180910390a35050565b60606001805461072890612089565b6107df3383836115de565b610e5d8484846107e3565b61086d338585858561167d565b6060610e7582611420565b506000610e8d60408051602081019091526000815290565b90506000815111610ead5760405180602001604052806000815250610ed8565b80610eb7846117a8565b604051602001610ec8929190612112565b6040516020818303038152906040525b9392505050565b33610ee982610b22565b6001600160a01b031614610f0f5760405162461bcd60e51b8152600401610809906120eb565b6000818152600d6020526040902054610f3a5760405162461bcd60e51b8152600401610809906120c3565b6000818152600d60205260408120819055610f5590826107d4565b604051819033907f62d66f5d387e08db35989a64daa510d22a7232d53039c6539e9bf747845f83e790600090a350565b600066038d7ea4c68000341015610fd45760405162461bcd60e51b8152602060048201526013602482015272139bdd08195b9bdd59da08115512081cd95b9d606a1b6044820152606401610809565b6103e86007541061101c5760405162461bcd60e51b815260206004820152601260248201527113585e081cdd5c1c1b1e481c995858da195960721b6044820152606401610809565b336000908152600c6020526040902054600a1161107b5760405162461bcd60e51b815260206004820152601d60248201527f4d696e74206c696d6974207065722077616c6c657420726561636865640000006044820152606401610809565b60016007600082825461108e9190612157565b909155505060075460006110a061183b565b90506110ab81611892565b6110ee5760405162461bcd60e51b815260206004820152601460248201527314985c9a5d1e481b1a5b5a5d081c995858da195960621b6044820152606401610809565b600081600381111561110257611102611f02565b0361112157600880549060006111178361216a565b91905055506111a2565b600181600381111561113557611135611f02565b0361114a57600980549060006111178361216a565b600281600381111561115e5761115e611f02565b0361117357600a80549060006111178361216a565b600381600381111561118757611187611f02565b036111a257600b805490600061119c8361216a565b91905055505b336000908152600c602052604081208054916111bd8361216a565b919050555060006111d0600a6064611961565b905060006111e0600a6064611961565b905060006111f0600a6064611961565b9050604051806080016040528084815260200183815260200182815260200185600381111561122157611221611f02565b815250600f600087815260200190815260200160002060008201518160000155602082015181600101556040820151816002015560608201518160030160006101000a81548160ff0219169083600381111561127f5761127f611f02565b02179055509050506112913386611994565b84336001600160a01b03167f13813009b3f5c7aa9c31c9a13ad2ff3d91a110e52f196f000984f531411d646b866040516112cb9190612183565b60405180910390a35092949350505050565b6001600160a01b03918216600090815260056020908152604080832093909416825291909152205460ff1690565b6000818152600e60209081526040808320338452909152902054806113675760405162461bcd60e51b8152602060048201526012602482015271139bc81bd999995c881d1bc818d85b98d95b60721b6044820152606401610809565b6000828152600e6020908152604080832033808552925280832083905551909183156108fc02918491818181858888f193505050501580156113ad573d6000803e3d6000fd5b50604051818152829033907fa916c06d382a32a2d52751a0f59721c029227671188c07a99233bf72bd3c679b90602001610e2c565b6113ea61155f565b6001600160a01b03811661141457604051631e4fbdf760e01b815260006004820152602401610809565b61141d8161158c565b50565b6000818152600260205260408120546001600160a01b03168061071357604051637e27328960e01b815260048101849052602401610809565b6108e183838360016119ae565b6000828152600260205260408120546001600160a01b039081169083161561149357611493818486611ab4565b6001600160a01b038116156114d1576114b06000856000806119ae565b6001600160a01b038116600090815260036020526040902080546000190190555b6001600160a01b03851615611500576001600160a01b0385166000908152600360205260409020805460010190555b60008481526002602052604080822080546001600160a01b0319166001600160a01b0389811691821790925591518793918516917fddf252ad1be2c89b69c2b068fc378daa952ba7f163c4a11628f55a4df523b3ef91a4949350505050565b6006546001600160a01b03163314610b875760405163118cdaa760e01b8152336004820152602401610809565b600680546001600160a01b038381166001600160a01b0319831681179093556040519116919082907f8be0079c531659141344cd1fd0a4f28419497f9722a3daafe3b4186f6b6457e090600090a35050565b6001600160a01b03821661161057604051630b61174360e31b81526001600160a01b0383166004820152602401610809565b6001600160a01b03838116600081815260056020908152604080832094871680845294825291829020805460ff191686151590811790915591519182527f17307eab39ab6107e8899845ad3d59bd9653f200f220920489ca2b5937696c31910160405180910390a3505050565b6001600160a01b0383163b156117a157604051630a85bd0160e11b81526001600160a01b0384169063150b7a02906116bf908890889087908790600401612191565b6020604051808303816000875af19250505080156116fa575060408051601f3d908101601f191682019092526116f7918101906121ce565b60015b611763573d808015611728576040519150601f19603f3d011682016040523d82523d6000602084013e61172d565b606091505b50805160000361175b57604051633250574960e11b81526001600160a01b0385166004820152602401610809565b805181602001fd5b6001600160e01b03198116630a85bd0160e11b1461179f57604051633250574960e11b81526001600160a01b0385166004820152602401610809565b505b5050505050565b606060006117b583611b18565b600101905060008167ffffffffffffffff8111156117d5576117d5611f65565b6040519080825280601f01601f1916602001820160405280156117ff576020820181803683370190505b5090508181016020015b600019016f181899199a1a9b1b9c1cb0b131b232b360811b600a86061a8153600a850494508461180957509392505050565b6000806064611848611bf0565b61185291906121eb565b905061025881101561186657600091505090565b61038481101561187857600191505090565b6103de81101561188a57600291505090565b600391505090565b6000808260038111156118a7576118a7611f02565b1480156118b8575061025860085410155b156118c557506000919050565b60018260038111156118d9576118d9611f02565b1480156118ea575061012c60095410155b156118f757506000919050565b600282600381111561190b5761190b611f02565b14801561191b5750605a600a5410155b1561192857506000919050565b600382600381111561193c5761193c611f02565b14801561194c5750600a600b5410155b1561195957506000919050565b506001919050565b600061196d838361220d565b611978906001612157565b611980611bf0565b61198a91906121eb565b610ed89084612157565b6107df828260405180602001604052806000815250611c48565b80806119c257506001600160a01b03821615155b15611a845760006119d284611420565b90506001600160a01b038316158015906119fe5750826001600160a01b0316816001600160a01b031614155b8015611a115750611a0f81846112dd565b155b15611a3a5760405163a9fbf51f60e01b81526001600160a01b0384166004820152602401610809565b8115611a825783856001600160a01b0316826001600160a01b03167f8c5be1e5ebec7d5bd14f71427d1e84f3dd0314c0f7b2291e5b200ac8c7c3b92560405160405180910390a45b505b5050600090815260046020526040902080546001600160a01b0319166001600160a01b0392909216919091179055565b611abf838383611c60565b6108e1576001600160a01b038316611aed57604051637e27328960e01b815260048101829052602401610809565b60405163177e802f60e01b81526001600160a01b038316600482015260248101829052604401610809565b60008072184f03e93ff9f4daa797ed6e38ed64bf6a1f0160401b8310611b575772184f03e93ff9f4daa797ed6e38ed64bf6a1f0160401b830492506040015b6d04ee2d6d415b85acef81000000008310611b83576d04ee2d6d415b85acef8100000000830492506020015b662386f26fc100008310611ba157662386f26fc10000830492506010015b6305f5e1008310611bb9576305f5e100830492506008015b6127108310611bcd57612710830492506004015b60648310611bdf576064830492506002015b600a83106107135760010192915050565b6000424433604051602001611c2a93929190928352602083019190915260601b6bffffffffffffffffffffffff1916604082015260540190565b6040516020818303038152906040528051906020012060001c905090565b611c528383611cc6565b6108e133600085858561167d565b60006001600160a01b03831615801590611cbe5750826001600160a01b0316846001600160a01b03161480611c9a5750611c9a84846112dd565b80611cbe57506000828152600460205260409020546001600160a01b038481169116145b949350505050565b6001600160a01b038216611cf057604051633250574960e11b815260006004820152602401610809565b6000611cfe83836000611466565b90506001600160a01b038116156108e1576040516339e3563760e11b815260006004820152602401610809565b6001600160e01b03198116811461141d57600080fd5b600060208284031215611d5357600080fd5b8135610ed881611d2b565b60005b83811015611d79578181015183820152602001611d61565b50506000910152565b60008151808452611d9a816020860160208601611d5e565b601f01601f19169290920160200192915050565b602081526000610ed86020830184611d82565b600060208284031215611dd357600080fd5b5035919050565b80356001600160a01b0381168114611df157600080fd5b919050565b60008060408385031215611e0957600080fd5b611e1283611dda565b946020939093013593505050565b600080600060608486031215611e3557600080fd5b611e3e84611dda565b9250611e4c60208501611dda565b929592945050506040919091013590565b600060208284031215611e6f57600080fd5b610ed882611dda565b60008060408385031215611e8b57600080fd5b82359150611e9b60208401611dda565b90509250929050565b60008060408385031215611eb757600080fd5b50508035926020909101359150565b60008060408385031215611ed957600080fd5b611ee283611dda565b915060208301358015158114611ef757600080fd5b809150509250929050565b634e487b7160e01b600052602160045260246000fd5b60048110611f3657634e487b7160e01b600052602160045260246000fd5b9052565b848152602081018490526040810183905260808101611f5c6060830184611f18565b95945050505050565b634e487b7160e01b600052604160045260246000fd5b60008060008060808587031215611f9157600080fd5b611f9a85611dda565b9350611fa860208601611dda565b925060408501359150606085013567ffffffffffffffff811115611fcb57600080fd5b8501601f81018713611fdc57600080fd5b803567ffffffffffffffff811115611ff657611ff6611f65565b604051601f8201601f19908116603f0116810167ffffffffffffffff8111828210171561202557612025611f65565b60405281815282820160200189101561203d57600080fd5b8160208401602083013760006020838301015280935050505092959194509250565b6000806040838503121561207257600080fd5b61207b83611dda565b9150611e9b60208401611dda565b600181811c9082168061209d57607f821691505b6020821081036120bd57634e487b7160e01b600052602260045260246000fd5b50919050565b6020808252600e908201526d139195081b9bdd081b1a5cdd195960921b604082015260600190565b6020808252600d908201526c2737ba103a34329037bbb732b960991b604082015260600190565b60008351612124818460208801611d5e565b835190830190612138818360208801611d5e565b01949350505050565b634e487b7160e01b600052601160045260246000fd5b8082018082111561071357610713612141565b60006001820161217c5761217c612141565b5060010190565b602081016107138284611f18565b6001600160a01b03858116825284166020820152604081018390526080606082018190526000906121c490830184611d82565b9695505050505050565b6000602082840312156121e057600080fd5b8151610ed881611d2b565b60008261220857634e487b7160e01b600052601260045260246000fd5b500690565b818103818111156107135761071361214156fea26469706673582212203e82d5a09ce678288946959924ead0db5e6be777a2a157a1694f892e8a87904e64736f6c634300081c0033",
  "linkReferences": {},
  "deployedLinkReferences": {}
}